{
  "_format": "hh-sol-artifact-1",
  "contractName": "ReputationSystem",
  "sourceName": "contracts/ReputationSystem.sol",
  "abi": [
    {
      "anonymous": false,
      "inputs": [
        {
          "indexed": true,
          "internalType": "address",
          "name": "rater",
          "type": "address"
        },
        {
          "indexed": true,
          "internalType": "address",
          "name": "ratee",
          "type": "address"
        },
        {
          "indexed": false,
          "internalType": "uint8",
          "name": "score",
          "type": "uint8"
        },
        {
          "indexed": false,
          "internalType": "string",
          "name": "comment",
          "type": "string"
        },
        {
          "indexed": false,
          "internalType": "uint256",
          "name": "timestamp",
          "type": "uint256"
        }
      ],
      "name": "UserRated",
      "type": "event"
    },
    {
      "inputs": [
        {
          "internalType": "address",
          "name": "_user",
          "type": "address"
        }
      ],
      "name": "getAllRatings",
      "outputs": [
        {
          "components": [
            {
              "internalType": "address",
              "name": "rater",
              "type": "address"
            },
            {
              "internalType": "uint8",
              "name": "score",
              "type": "uint8"
            },
            {
              "internalType": "string",
              "name": "comment",
              "type": "string"
            },
            {
              "internalType": "uint256",
              "name": "timestamp",
              "type": "uint256"
            }
          ],
          "internalType": "struct ReputationSystem.Rating[]",
          "name": "",
          "type": "tuple[]"
        }
      ],
      "stateMutability": "view",
      "type": "function"
    },
    {
      "inputs": [],
      "name": "getAllUsers",
      "outputs": [
        {
          "internalType": "address[]",
          "name": "",
          "type": "address[]"
        }
      ],
      "stateMutability": "view",
      "type": "function"
    },
    {
      "inputs": [
        {
          "internalType": "address",
          "name": "_user",
          "type": "address"
        }
      ],
      "name": "getAverageScore",
      "outputs": [
        {
          "internalType": "uint256",
          "name": "avgScore",
          "type": "uint256"
        },
        {
          "internalType": "uint256",
          "name": "totalRatings",
          "type": "uint256"
        }
      ],
      "stateMutability": "view",
      "type": "function"
    },
    {
      "inputs": [
        {
          "internalType": "address",
          "name": "",
          "type": "address"
        },
        {
          "internalType": "address",
          "name": "",
          "type": "address"
        }
      ],
      "name": "hasRated",
      "outputs": [
        {
          "internalType": "bool",
          "name": "",
          "type": "bool"
        }
      ],
      "stateMutability": "view",
      "type": "function"
    },
    {
      "inputs": [
        {
          "internalType": "address",
          "name": "_ratee",
          "type": "address"
        },
        {
          "internalType": "uint8",
          "name": "_score",
          "type": "uint8"
        },
        {
          "internalType": "string",
          "name": "_comment",
          "type": "string"
        }
      ],
      "name": "rateUser",
      "outputs": [],
      "stateMutability": "nonpayable",
      "type": "function"
    },
    {
      "inputs": [
        {
          "internalType": "address",
          "name": "",
          "type": "address"
        },
        {
          "internalType": "uint256",
          "name": "",
          "type": "uint256"
        }
      ],
      "name": "receivedRatings",
      "outputs": [
        {
          "internalType": "address",
          "name": "rater",
          "type": "address"
        },
        {
          "internalType": "uint8",
          "name": "score",
          "type": "uint8"
        },
        {
          "internalType": "string",
          "name": "comment",
          "type": "string"
        },
        {
          "internalType": "uint256",
          "name": "timestamp",
          "type": "uint256"
        }
      ],
      "stateMutability": "view",
      "type": "function"
    },
    {
      "inputs": [
        {
          "internalType": "uint256",
          "name": "",
          "type": "uint256"
        }
      ],
      "name": "users",
      "outputs": [
        {
          "internalType": "address",
          "name": "",
          "type": "address"
        }
      ],
      "stateMutability": "view",
      "type": "function"
    }
  ],
  "bytecode": "0x6080604052348015600f57600080fd5b506119298061001f6000396000f3fe608060405234801561001057600080fd5b506004361061007d5760003560e01c8063365b98b21161005b578063365b98b2146100fe5780637ccaf30a1461012e578063d06509fd14610161578063e2842d79146101925761007d565b806305576112146100825780630a537953146100b25780632c365df6146100ce575b600080fd5b61009c60048036038101906100979190610d00565b6101b0565b6040516100a99190610f26565b60405180910390f35b6100cc60048036038101906100c79190610fd9565b61035c565b005b6100e860048036038101906100e3919061104d565b6107d2565b6040516100f591906110a8565b60405180910390f35b610118600480360381019061011391906110ef565b610801565b604051610125919061112b565b60405180910390f35b61014860048036038101906101439190611146565b610840565b60405161015894939291906111ee565b60405180910390f35b61017b60048036038101906101769190610d00565b610942565b60405161018992919061123a565b60405180910390f35b61019a610b62565b6040516101a79190611312565b60405180910390f35b60606000808373ffffffffffffffffffffffffffffffffffffffff1673ffffffffffffffffffffffffffffffffffffffff168152602001908152602001600020805480602002602001604051908101604052809291908181526020016000905b8282101561035157838290600052602060002090600302016040518060800160405290816000820160009054906101000a900473ffffffffffffffffffffffffffffffffffffffff1673ffffffffffffffffffffffffffffffffffffffff1673ffffffffffffffffffffffffffffffffffffffff1681526020016000820160149054906101000a900460ff1660ff1660ff1681526020016001820180546102b690611363565b80601f01602080910402602001604051908101604052809291908181526020018280546102e290611363565b801561032f5780601f106103045761010080835404028352916020019161032f565b820191906000526020600020905b81548152906001019060200180831161031257829003601f168201915b5050505050815260200160028201548152505081526020019060010190610210565b505050509050919050565b8260018160ff16101580156103755750600a8160ff1611155b6103b4576040517f08c379a00000000000000000000000000000000000000000000000000000000081526004016103ab906113e0565b60405180910390fd5b3373ffffffffffffffffffffffffffffffffffffffff168573ffffffffffffffffffffffffffffffffffffffff1603610422576040517f08c379a00000000000000000000000000000000000000000000000000000000081526004016104199061144c565b60405180910390fd5b600160003373ffffffffffffffffffffffffffffffffffffffff1673ffffffffffffffffffffffffffffffffffffffff16815260200190815260200160002060008673ffffffffffffffffffffffffffffffffffffffff1673ffffffffffffffffffffffffffffffffffffffff16815260200190815260200160002060009054906101000a900460ff16156104ec576040517f08c379a00000000000000000000000000000000000000000000000000000000081526004016104e3906114b8565b60405180910390fd5b60018060003373ffffffffffffffffffffffffffffffffffffffff1673ffffffffffffffffffffffffffffffffffffffff16815260200190815260200160002060008773ffffffffffffffffffffffffffffffffffffffff1673ffffffffffffffffffffffffffffffffffffffff16815260200190815260200160002060006101000a81548160ff0219169083151502179055506000808673ffffffffffffffffffffffffffffffffffffffff1673ffffffffffffffffffffffffffffffffffffffff16815260200190815260200160002060405180608001604052803373ffffffffffffffffffffffffffffffffffffffff1681526020018660ff16815260200185858080601f016020809104026020016040519081016040528093929190818152602001838380828437600081840152601f19601f82011690508083019250505050505050815260200142815250908060018154018082558091505060019003906000526020600020906003020160009091909190915060008201518160000160006101000a81548173ffffffffffffffffffffffffffffffffffffffff021916908373ffffffffffffffffffffffffffffffffffffffff16021790555060208201518160000160146101000a81548160ff021916908360ff16021790555060408201518160010190816106e291906116b3565b506060820151816002015550506106f885610bf0565b610760576002859080600181540180825580915050600190039060005260206000200160009091909190916101000a81548173ffffffffffffffffffffffffffffffffffffffff021916908373ffffffffffffffffffffffffffffffffffffffff1602179055505b8473ffffffffffffffffffffffffffffffffffffffff163373ffffffffffffffffffffffffffffffffffffffff167f9fbd730b77399cb4d59ff292a79254dd1e608f63d480cd34fcd9069d3461cdb1868686426040516107c394939291906117c1565b60405180910390a35050505050565b60016020528160005260406000206020528060005260406000206000915091509054906101000a900460ff1681565b6002818154811061081157600080fd5b906000526020600020016000915054906101000a900473ffffffffffffffffffffffffffffffffffffffff1681565b6000602052816000526040600020818154811061085c57600080fd5b9060005260206000209060030201600091509150508060000160009054906101000a900473ffffffffffffffffffffffffffffffffffffffff16908060000160149054906101000a900460ff16908060010180546108b990611363565b80601f01602080910402602001604051908101604052809291908181526020018280546108e590611363565b80156109325780601f1061090757610100808354040283529160200191610932565b820191906000526020600020905b81548152906001019060200180831161091557829003601f168201915b5050505050908060020154905084565b60008060008060008573ffffffffffffffffffffffffffffffffffffffff1673ffffffffffffffffffffffffffffffffffffffff168152602001908152602001600020805480602002602001604051908101604052809291908181526020016000905b82821015610ae657838290600052602060002090600302016040518060800160405290816000820160009054906101000a900473ffffffffffffffffffffffffffffffffffffffff1673ffffffffffffffffffffffffffffffffffffffff1673ffffffffffffffffffffffffffffffffffffffff1681526020016000820160149054906101000a900460ff1660ff1660ff168152602001600182018054610a4b90611363565b80601f0160208091040260200160405190810160405280929190818152602001828054610a7790611363565b8015610ac45780601f10610a9957610100808354040283529160200191610ac4565b820191906000526020600020905b815481529060010190602001808311610aa757829003601f168201915b50505050508152602001600282015481525050815260200190600101906109a5565b5050505090506000805b8251811015610b3557828181518110610b0c57610b0b611801565b5b60200260200101516020015160ff1682610b26919061185f565b91508080600101915050610af0565b506000825111610b4757600080610b57565b815181610b5491906118c2565b82515b935093505050915091565b60606002805480602002602001604051908101604052809291908181526020018280548015610be657602002820191906000526020600020905b8160009054906101000a900473ffffffffffffffffffffffffffffffffffffffff1673ffffffffffffffffffffffffffffffffffffffff1681526020019060010190808311610b9c575b5050505050905090565b600080600090505b600280549050811015610c8d578273ffffffffffffffffffffffffffffffffffffffff1660028281548110610c3057610c2f611801565b5b9060005260206000200160009054906101000a900473ffffffffffffffffffffffffffffffffffffffff1673ffffffffffffffffffffffffffffffffffffffff1603610c80576001915050610c93565b8080600101915050610bf8565b50600090505b919050565b600080fd5b600080fd5b600073ffffffffffffffffffffffffffffffffffffffff82169050919050565b6000610ccd82610ca2565b9050919050565b610cdd81610cc2565b8114610ce857600080fd5b50565b600081359050610cfa81610cd4565b92915050565b600060208284031215610d1657610d15610c98565b5b6000610d2484828501610ceb565b91505092915050565b600081519050919050565b600082825260208201905092915050565b6000819050602082019050919050565b610d6281610cc2565b82525050565b600060ff82169050919050565b610d7e81610d68565b82525050565b600081519050919050565b600082825260208201905092915050565b60005b83811015610dbe578082015181840152602081019050610da3565b60008484015250505050565b6000601f19601f8301169050919050565b6000610de682610d84565b610df08185610d8f565b9350610e00818560208601610da0565b610e0981610dca565b840191505092915050565b6000819050919050565b610e2781610e14565b82525050565b6000608083016000830151610e456000860182610d59565b506020830151610e586020860182610d75565b5060408301518482036040860152610e708282610ddb565b9150506060830151610e856060860182610e1e565b508091505092915050565b6000610e9c8383610e2d565b905092915050565b6000602082019050919050565b6000610ebc82610d2d565b610ec68185610d38565b935083602082028501610ed885610d49565b8060005b85811015610f145784840389528151610ef58582610e90565b9450610f0083610ea4565b925060208a01995050600181019050610edc565b50829750879550505050505092915050565b60006020820190508181036000830152610f408184610eb1565b905092915050565b610f5181610d68565b8114610f5c57600080fd5b50565b600081359050610f6e81610f48565b92915050565b600080fd5b600080fd5b600080fd5b60008083601f840112610f9957610f98610f74565b5b8235905067ffffffffffffffff811115610fb657610fb5610f79565b5b602083019150836001820283011115610fd257610fd1610f7e565b5b9250929050565b60008060008060608587031215610ff357610ff2610c98565b5b600061100187828801610ceb565b945050602061101287828801610f5f565b935050604085013567ffffffffffffffff81111561103357611032610c9d565b5b61103f87828801610f83565b925092505092959194509250565b6000806040838503121561106457611063610c98565b5b600061107285828601610ceb565b925050602061108385828601610ceb565b9150509250929050565b60008115159050919050565b6110a28161108d565b82525050565b60006020820190506110bd6000830184611099565b92915050565b6110cc81610e14565b81146110d757600080fd5b50565b6000813590506110e9816110c3565b92915050565b60006020828403121561110557611104610c98565b5b6000611113848285016110da565b91505092915050565b61112581610cc2565b82525050565b6000602082019050611140600083018461111c565b92915050565b6000806040838503121561115d5761115c610c98565b5b600061116b85828601610ceb565b925050602061117c858286016110da565b9150509250929050565b61118f81610d68565b82525050565b600082825260208201905092915050565b60006111b182610d84565b6111bb8185611195565b93506111cb818560208601610da0565b6111d481610dca565b840191505092915050565b6111e881610e14565b82525050565b6000608082019050611203600083018761111c565b6112106020830186611186565b818103604083015261122281856111a6565b905061123160608301846111df565b95945050505050565b600060408201905061124f60008301856111df565b61125c60208301846111df565b9392505050565b600081519050919050565b600082825260208201905092915050565b6000819050602082019050919050565b600061129b8383610d59565b60208301905092915050565b6000602082019050919050565b60006112bf82611263565b6112c9818561126e565b93506112d48361127f565b8060005b838110156113055781516112ec888261128f565b97506112f7836112a7565b9250506001810190506112d8565b5085935050505092915050565b6000602082019050818103600083015261132c81846112b4565b905092915050565b7f4e487b7100000000000000000000000000000000000000000000000000000000600052602260045260246000fd5b6000600282049050600182168061137b57607f821691505b60208210810361138e5761138d611334565b5b50919050565b7f53636f7265206d757374206265206265747765656e203120616e642031300000600082015250565b60006113ca601e83611195565b91506113d582611394565b602082019050919050565b600060208201905081810360008301526113f9816113bd565b9050919050565b7f596f752063616e6e6f74207261746520796f757273656c660000000000000000600082015250565b6000611436601883611195565b915061144182611400565b602082019050919050565b6000602082019050818103600083015261146581611429565b9050919050565b7f596f75206861766520616c726561647920726174656420746869732075736572600082015250565b60006114a2602083611195565b91506114ad8261146c565b602082019050919050565b600060208201905081810360008301526114d181611495565b9050919050565b7f4e487b7100000000000000000000000000000000000000000000000000000000600052604160045260246000fd5b60008190508160005260206000209050919050565b60006020601f8301049050919050565b600082821b905092915050565b6000600883026115697fffffffffffffffffffffffffffffffffffffffffffffffffffffffffffffffff8261152c565b611573868361152c565b95508019841693508086168417925050509392505050565b6000819050919050565b60006115b06115ab6115a684610e14565b61158b565b610e14565b9050919050565b6000819050919050565b6115ca83611595565b6115de6115d6826115b7565b848454611539565b825550505050565b600090565b6115f36115e6565b6115fe8184846115c1565b505050565b5b81811015611622576116176000826115eb565b600181019050611604565b5050565b601f8211156116675761163881611507565b6116418461151c565b81016020851015611650578190505b61166461165c8561151c565b830182611603565b50505b505050565b600082821c905092915050565b600061168a6000198460080261166c565b1980831691505092915050565b60006116a38383611679565b9150826002028217905092915050565b6116bc82610d84565b67ffffffffffffffff8111156116d5576116d46114d8565b5b6116df8254611363565b6116ea828285611626565b600060209050601f83116001811461171d576000841561170b578287015190505b6117158582611697565b86555061177d565b601f19841661172b86611507565b60005b828110156117535784890151825560018201915060208501945060208101905061172e565b86831015611770578489015161176c601f891682611679565b8355505b6001600288020188555050505b505050505050565b82818337600083830152505050565b60006117a08385611195565b93506117ad838584611785565b6117b683610dca565b840190509392505050565b60006060820190506117d66000830187611186565b81810360208301526117e9818587611794565b90506117f860408301846111df565b95945050505050565b7f4e487b7100000000000000000000000000000000000000000000000000000000600052603260045260246000fd5b7f4e487b7100000000000000000000000000000000000000000000000000000000600052601160045260246000fd5b600061186a82610e14565b915061187583610e14565b925082820190508082111561188d5761188c611830565b5b92915050565b7f4e487b7100000000000000000000000000000000000000000000000000000000600052601260045260246000fd5b60006118cd82610e14565b91506118d883610e14565b9250826118e8576118e7611893565b5b82820490509291505056fea26469706673582212204656db6d13d5c2d195dd7409008d252635da889bba96eac71e44bcd3f29f4eea64736f6c634300081c0033",
  "linkReferences": {},
  "deployedLinkReferences": {}
}