{
  "_format": "hh-sol-artifact-1",
  "contractName": "ReputationSystem",
  "sourceName": "contracts/ReputationSystem.sol",
  "abi": [
    {
      "anonymous": false,
      "inputs": [
        {
          "indexed": true,
          "internalType": "address",
          "name": "wallet",
          "type": "address"
        },
        {
          "indexed": false,
          "internalType": "string",
          "name": "name",
          "type": "string"
        }
      ],
      "name": "ColleagueAdded",
      "type": "event"
    },
    {
      "anonymous": false,
      "inputs": [
        {
          "indexed": true,
          "internalType": "address",
          "name": "rater",
          "type": "address"
        },
        {
          "indexed": true,
          "internalType": "address",
          "name": "ratee",
          "type": "address"
        },
        {
          "indexed": false,
          "internalType": "uint8",
          "name": "score",
          "type": "uint8"
        },
        {
          "indexed": false,
          "internalType": "string",
          "name": "comment",
          "type": "string"
        },
        {
          "indexed": false,
          "internalType": "uint256",
          "name": "timestamp",
          "type": "uint256"
        }
      ],
      "name": "UserRated",
      "type": "event"
    },
    {
      "inputs": [
        {
          "internalType": "address",
          "name": "wallet",
          "type": "address"
        },
        {
          "internalType": "string",
          "name": "name",
          "type": "string"
        }
      ],
      "name": "addColleague",
      "outputs": [],
      "stateMutability": "nonpayable",
      "type": "function"
    },
    {
      "inputs": [
        {
          "internalType": "uint256",
          "name": "",
          "type": "uint256"
        }
      ],
      "name": "colleagueAddresses",
      "outputs": [
        {
          "internalType": "address",
          "name": "",
          "type": "address"
        }
      ],
      "stateMutability": "view",
      "type": "function"
    },
    {
      "inputs": [
        {
          "internalType": "address",
          "name": "",
          "type": "address"
        }
      ],
      "name": "colleagueNames",
      "outputs": [
        {
          "internalType": "string",
          "name": "",
          "type": "string"
        }
      ],
      "stateMutability": "view",
      "type": "function"
    },
    {
      "inputs": [],
      "name": "getAllColleagues",
      "outputs": [
        {
          "components": [
            {
              "internalType": "string",
              "name": "name",
              "type": "string"
            },
            {
              "internalType": "address",
              "name": "wallet",
              "type": "address"
            }
          ],
          "internalType": "struct ReputationSystem.Colleague[]",
          "name": "",
          "type": "tuple[]"
        }
      ],
      "stateMutability": "view",
      "type": "function"
    },
    {
      "inputs": [
        {
          "internalType": "address",
          "name": "user",
          "type": "address"
        }
      ],
      "name": "getAllRatings",
      "outputs": [
        {
          "components": [
            {
              "internalType": "address",
              "name": "rater",
              "type": "address"
            },
            {
              "internalType": "uint8",
              "name": "score",
              "type": "uint8"
            },
            {
              "internalType": "string",
              "name": "comment",
              "type": "string"
            },
            {
              "internalType": "uint256",
              "name": "timestamp",
              "type": "uint256"
            }
          ],
          "internalType": "struct ReputationSystem.Rating[]",
          "name": "",
          "type": "tuple[]"
        }
      ],
      "stateMutability": "view",
      "type": "function"
    },
    {
      "inputs": [
        {
          "internalType": "address",
          "name": "user",
          "type": "address"
        }
      ],
      "name": "getAverageScore",
      "outputs": [
        {
          "internalType": "uint256",
          "name": "",
          "type": "uint256"
        }
      ],
      "stateMutability": "view",
      "type": "function"
    },
    {
      "inputs": [
        {
          "internalType": "address",
          "name": "wallet",
          "type": "address"
        }
      ],
      "name": "getColleagueName",
      "outputs": [
        {
          "internalType": "string",
          "name": "",
          "type": "string"
        }
      ],
      "stateMutability": "view",
      "type": "function"
    },
    {
      "inputs": [
        {
          "internalType": "address",
          "name": "",
          "type": "address"
        },
        {
          "internalType": "address",
          "name": "",
          "type": "address"
        }
      ],
      "name": "hasRated",
      "outputs": [
        {
          "internalType": "bool",
          "name": "",
          "type": "bool"
        }
      ],
      "stateMutability": "view",
      "type": "function"
    },
    {
      "inputs": [
        {
          "internalType": "address",
          "name": "to",
          "type": "address"
        },
        {
          "internalType": "uint8",
          "name": "score",
          "type": "uint8"
        },
        {
          "internalType": "string",
          "name": "comment",
          "type": "string"
        }
      ],
      "name": "rateUser",
      "outputs": [],
      "stateMutability": "nonpayable",
      "type": "function"
    },
    {
      "inputs": [
        {
          "internalType": "address",
          "name": "",
          "type": "address"
        },
        {
          "internalType": "uint256",
          "name": "",
          "type": "uint256"
        }
      ],
      "name": "receivedRatings",
      "outputs": [
        {
          "internalType": "address",
          "name": "rater",
          "type": "address"
        },
        {
          "internalType": "uint8",
          "name": "score",
          "type": "uint8"
        },
        {
          "internalType": "string",
          "name": "comment",
          "type": "string"
        },
        {
          "internalType": "uint256",
          "name": "timestamp",
          "type": "uint256"
        }
      ],
      "stateMutability": "view",
      "type": "function"
    }
  ],
  "bytecode": "0x6080604052348015600f57600080fd5b506121198061001f6000396000f3fe608060405234801561001057600080fd5b506004361061009e5760003560e01c80639b245baa116100665780639b245baa14610182578063aadeef64146101b2578063d06509fd146101e2578063d323f32b14610212578063f212352c146102305761009e565b806305576112146100a35780630a537953146100d357806329214f1d146100ef5780632c365df61461011f5780637ccaf30a1461014f575b600080fd5b6100bd60048036038101906100b891906111fc565b61024c565b6040516100ca9190611422565b60405180910390f35b6100ed60048036038101906100e891906115a5565b6103f8565b005b61010960048036038101906101049190611640565b610842565b604051610116919061167c565b60405180910390f35b61013960048036038101906101349190611697565b610881565b60405161014691906116f2565b60405180910390f35b6101696004803603810190610164919061170d565b6108b0565b60405161017994939291906117b5565b60405180910390f35b61019c600480360381019061019791906111fc565b6109b2565b6040516101a99190611801565b60405180910390f35b6101cc60048036038101906101c791906111fc565b610a52565b6040516101d99190611801565b60405180910390f35b6101fc60048036038101906101f791906111fc565b610b23565b6040516102099190611823565b60405180910390f35b61021a610d3f565b604051610227919061193d565b60405180910390f35b61024a6004803603810190610245919061195f565b610f17565b005b60606000808373ffffffffffffffffffffffffffffffffffffffff1673ffffffffffffffffffffffffffffffffffffffff168152602001908152602001600020805480602002602001604051908101604052809291908181526020016000905b828210156103ed57838290600052602060002090600302016040518060800160405290816000820160009054906101000a900473ffffffffffffffffffffffffffffffffffffffff1673ffffffffffffffffffffffffffffffffffffffff1673ffffffffffffffffffffffffffffffffffffffff1681526020016000820160149054906101000a900460ff1660ff1660ff168152602001600182018054610352906119ea565b80601f016020809104026020016040519081016040528092919081815260200182805461037e906119ea565b80156103cb5780601f106103a0576101008083540402835291602001916103cb565b820191906000526020600020905b8154815290600101906020018083116103ae57829003601f168201915b50505050508152602001600282015481525050815260200190600101906102ac565b505050509050919050565b3373ffffffffffffffffffffffffffffffffffffffff168373ffffffffffffffffffffffffffffffffffffffff1603610466576040517f08c379a000000000000000000000000000000000000000000000000000000000815260040161045d90611a67565b60405180910390fd5b6000600260008573ffffffffffffffffffffffffffffffffffffffff1673ffffffffffffffffffffffffffffffffffffffff16815260200190815260200160002080546104b2906119ea565b9050116104f4576040517f08c379a00000000000000000000000000000000000000000000000000000000081526004016104eb90611ad3565b60405180910390fd5b600160003373ffffffffffffffffffffffffffffffffffffffff1673ffffffffffffffffffffffffffffffffffffffff16815260200190815260200160002060008473ffffffffffffffffffffffffffffffffffffffff1673ffffffffffffffffffffffffffffffffffffffff16815260200190815260200160002060009054906101000a900460ff16156105be576040517f08c379a00000000000000000000000000000000000000000000000000000000081526004016105b590611b65565b60405180910390fd5b60018260ff16101580156105d6575060058260ff1611155b610615576040517f08c379a000000000000000000000000000000000000000000000000000000000815260040161060c90611bd1565b60405180910390fd5b6000808473ffffffffffffffffffffffffffffffffffffffff1673ffffffffffffffffffffffffffffffffffffffff16815260200190815260200160002060405180608001604052803373ffffffffffffffffffffffffffffffffffffffff1681526020018460ff16815260200183815260200142815250908060018154018082558091505060019003906000526020600020906003020160009091909190915060008201518160000160006101000a81548173ffffffffffffffffffffffffffffffffffffffff021916908373ffffffffffffffffffffffffffffffffffffffff16021790555060208201518160000160146101000a81548160ff021916908360ff16021790555060408201518160010190816107339190611d9d565b5060608201518160020155505060018060003373ffffffffffffffffffffffffffffffffffffffff1673ffffffffffffffffffffffffffffffffffffffff16815260200190815260200160002060008573ffffffffffffffffffffffffffffffffffffffff1673ffffffffffffffffffffffffffffffffffffffff16815260200190815260200160002060006101000a81548160ff0219169083151502179055508273ffffffffffffffffffffffffffffffffffffffff163373ffffffffffffffffffffffffffffffffffffffff167f9fbd730b77399cb4d59ff292a79254dd1e608f63d480cd34fcd9069d3461cdb184844260405161083593929190611e6f565b60405180910390a3505050565b6003818154811061085257600080fd5b906000526020600020016000915054906101000a900473ffffffffffffffffffffffffffffffffffffffff1681565b60016020528160005260406000206020528060005260406000206000915091509054906101000a900460ff1681565b600060205281600052604060002081815481106108cc57600080fd5b9060005260206000209060030201600091509150508060000160009054906101000a900473ffffffffffffffffffffffffffffffffffffffff16908060000160149054906101000a900460ff1690806001018054610929906119ea565b80601f0160208091040260200160405190810160405280929190818152602001828054610955906119ea565b80156109a25780601f10610977576101008083540402835291602001916109a2565b820191906000526020600020905b81548152906001019060200180831161098557829003601f168201915b5050505050908060020154905084565b600260205280600052604060002060009150905080546109d1906119ea565b80601f01602080910402602001604051908101604052809291908181526020018280546109fd906119ea565b8015610a4a5780601f10610a1f57610100808354040283529160200191610a4a565b820191906000526020600020905b815481529060010190602001808311610a2d57829003601f168201915b505050505081565b6060600260008373ffffffffffffffffffffffffffffffffffffffff1673ffffffffffffffffffffffffffffffffffffffff1681526020019081526020016000208054610a9e906119ea565b80601f0160208091040260200160405190810160405280929190818152602001828054610aca906119ea565b8015610b175780601f10610aec57610100808354040283529160200191610b17565b820191906000526020600020905b815481529060010190602001808311610afa57829003601f168201915b50505050509050919050565b6000806000808473ffffffffffffffffffffffffffffffffffffffff1673ffffffffffffffffffffffffffffffffffffffff168152602001908152602001600020805480602002602001604051908101604052809291908181526020016000905b82821015610cc557838290600052602060002090600302016040518060800160405290816000820160009054906101000a900473ffffffffffffffffffffffffffffffffffffffff1673ffffffffffffffffffffffffffffffffffffffff1673ffffffffffffffffffffffffffffffffffffffff1681526020016000820160149054906101000a900460ff1660ff1660ff168152602001600182018054610c2a906119ea565b80601f0160208091040260200160405190810160405280929190818152602001828054610c56906119ea565b8015610ca35780601f10610c7857610100808354040283529160200191610ca3565b820191906000526020600020905b815481529060010190602001808311610c8657829003601f168201915b5050505050815260200160028201548152505081526020019060010190610b84565b5050505090506000815103610cde576000915050610d3a565b6000805b8251811015610d2757828181518110610cfe57610cfd611ead565b5b60200260200101516020015160ff1682610d189190611f0b565b91508080600101915050610ce2565b50815181610d359190611f6e565b925050505b919050565b6060600060038054905067ffffffffffffffff811115610d6257610d6161147a565b5b604051908082528060200260200182016040528015610d9b57816020015b610d8861115a565b815260200190600190039081610d805790505b50905060005b600380549050811015610f0f57600060038281548110610dc457610dc3611ead565b5b9060005260206000200160009054906101000a900473ffffffffffffffffffffffffffffffffffffffff1690506040518060400160405280600260008473ffffffffffffffffffffffffffffffffffffffff1673ffffffffffffffffffffffffffffffffffffffff1681526020019081526020016000208054610e46906119ea565b80601f0160208091040260200160405190810160405280929190818152602001828054610e72906119ea565b8015610ebf5780601f10610e9457610100808354040283529160200191610ebf565b820191906000526020600020905b815481529060010190602001808311610ea257829003601f168201915b505050505081526020018273ffffffffffffffffffffffffffffffffffffffff16815250838381518110610ef657610ef5611ead565b5b6020026020010181905250508080600101915050610da1565b508091505090565b6000815111610f5b576040517f08c379a0000000000000000000000000000000000000000000000000000000008152600401610f5290611feb565b60405180910390fd5b600073ffffffffffffffffffffffffffffffffffffffff168273ffffffffffffffffffffffffffffffffffffffff1603610fca576040517f08c379a0000000000000000000000000000000000000000000000000000000008152600401610fc190612057565b60405180910390fd5b6000600260008473ffffffffffffffffffffffffffffffffffffffff1673ffffffffffffffffffffffffffffffffffffffff1681526020019081526020016000208054611016906119ea565b905014611058576040517f08c379a000000000000000000000000000000000000000000000000000000000815260040161104f906120c3565b60405180910390fd5b80600260008473ffffffffffffffffffffffffffffffffffffffff1673ffffffffffffffffffffffffffffffffffffffff16815260200190815260200160002090816110a49190611d9d565b506003829080600181540180825580915050600190039060005260206000200160009091909190916101000a81548173ffffffffffffffffffffffffffffffffffffffff021916908373ffffffffffffffffffffffffffffffffffffffff1602179055508173ffffffffffffffffffffffffffffffffffffffff167f1f8ee0b882baa2ee2ff02ed06afc36c33de7457ab42bc1e546afaccd474f3ab28260405161114e9190611801565b60405180910390a25050565b604051806040016040528060608152602001600073ffffffffffffffffffffffffffffffffffffffff1681525090565b6000604051905090565b600080fd5b600080fd5b600073ffffffffffffffffffffffffffffffffffffffff82169050919050565b60006111c98261119e565b9050919050565b6111d9816111be565b81146111e457600080fd5b50565b6000813590506111f6816111d0565b92915050565b60006020828403121561121257611211611194565b5b6000611220848285016111e7565b91505092915050565b600081519050919050565b600082825260208201905092915050565b6000819050602082019050919050565b61125e816111be565b82525050565b600060ff82169050919050565b61127a81611264565b82525050565b600081519050919050565b600082825260208201905092915050565b60005b838110156112ba57808201518184015260208101905061129f565b60008484015250505050565b6000601f19601f8301169050919050565b60006112e282611280565b6112ec818561128b565b93506112fc81856020860161129c565b611305816112c6565b840191505092915050565b6000819050919050565b61132381611310565b82525050565b60006080830160008301516113416000860182611255565b5060208301516113546020860182611271565b506040830151848203604086015261136c82826112d7565b9150506060830151611381606086018261131a565b508091505092915050565b60006113988383611329565b905092915050565b6000602082019050919050565b60006113b882611229565b6113c28185611234565b9350836020820285016113d485611245565b8060005b8581101561141057848403895281516113f1858261138c565b94506113fc836113a0565b925060208a019950506001810190506113d8565b50829750879550505050505092915050565b6000602082019050818103600083015261143c81846113ad565b905092915050565b61144d81611264565b811461145857600080fd5b50565b60008135905061146a81611444565b92915050565b600080fd5b600080fd5b7f4e487b7100000000000000000000000000000000000000000000000000000000600052604160045260246000fd5b6114b2826112c6565b810181811067ffffffffffffffff821117156114d1576114d061147a565b5b80604052505050565b60006114e461118a565b90506114f082826114a9565b919050565b600067ffffffffffffffff8211156115105761150f61147a565b5b611519826112c6565b9050602081019050919050565b82818337600083830152505050565b6000611548611543846114f5565b6114da565b90508281526020810184848401111561156457611563611475565b5b61156f848285611526565b509392505050565b600082601f83011261158c5761158b611470565b5b813561159c848260208601611535565b91505092915050565b6000806000606084860312156115be576115bd611194565b5b60006115cc868287016111e7565b93505060206115dd8682870161145b565b925050604084013567ffffffffffffffff8111156115fe576115fd611199565b5b61160a86828701611577565b9150509250925092565b61161d81611310565b811461162857600080fd5b50565b60008135905061163a81611614565b92915050565b60006020828403121561165657611655611194565b5b60006116648482850161162b565b91505092915050565b611676816111be565b82525050565b6000602082019050611691600083018461166d565b92915050565b600080604083850312156116ae576116ad611194565b5b60006116bc858286016111e7565b92505060206116cd858286016111e7565b9150509250929050565b60008115159050919050565b6116ec816116d7565b82525050565b600060208201905061170760008301846116e3565b92915050565b6000806040838503121561172457611723611194565b5b6000611732858286016111e7565b92505060206117438582860161162b565b9150509250929050565b61175681611264565b82525050565b600082825260208201905092915050565b600061177882611280565b611782818561175c565b935061179281856020860161129c565b61179b816112c6565b840191505092915050565b6117af81611310565b82525050565b60006080820190506117ca600083018761166d565b6117d7602083018661174d565b81810360408301526117e9818561176d565b90506117f860608301846117a6565b95945050505050565b6000602082019050818103600083015261181b818461176d565b905092915050565b600060208201905061183860008301846117a6565b92915050565b600081519050919050565b600082825260208201905092915050565b6000819050602082019050919050565b6000604083016000830151848203600086015261188782826112d7565b915050602083015161189c6020860182611255565b508091505092915050565b60006118b3838361186a565b905092915050565b6000602082019050919050565b60006118d38261183e565b6118dd8185611849565b9350836020820285016118ef8561185a565b8060005b8581101561192b578484038952815161190c85826118a7565b9450611917836118bb565b925060208a019950506001810190506118f3565b50829750879550505050505092915050565b6000602082019050818103600083015261195781846118c8565b905092915050565b6000806040838503121561197657611975611194565b5b6000611984858286016111e7565b925050602083013567ffffffffffffffff8111156119a5576119a4611199565b5b6119b185828601611577565b9150509250929050565b7f4e487b7100000000000000000000000000000000000000000000000000000000600052602260045260246000fd5b60006002820490506001821680611a0257607f821691505b602082108103611a1557611a146119bb565b5b50919050565b7f596f752063616e6e6f74207261746520796f757273656c660000000000000000600082015250565b6000611a5160188361175c565b9150611a5c82611a1b565b602082019050919050565b60006020820190508181036000830152611a8081611a44565b9050919050565b7f55736572206e6f7420612076616c696420636f6c6c6561677565000000000000600082015250565b6000611abd601a8361175c565b9150611ac882611a87565b602082019050919050565b60006020820190508181036000830152611aec81611ab0565b9050919050565b7f596f75206861766520616c7265616479207261746564207468697320636f6c6c60008201527f6561677565000000000000000000000000000000000000000000000000000000602082015250565b6000611b4f60258361175c565b9150611b5a82611af3565b604082019050919050565b60006020820190508181036000830152611b7e81611b42565b9050919050565b7f53636f7265206d757374206265206265747765656e203120616e642035000000600082015250565b6000611bbb601d8361175c565b9150611bc682611b85565b602082019050919050565b60006020820190508181036000830152611bea81611bae565b9050919050565b60008190508160005260206000209050919050565b60006020601f8301049050919050565b600082821b905092915050565b600060088302611c537fffffffffffffffffffffffffffffffffffffffffffffffffffffffffffffffff82611c16565b611c5d8683611c16565b95508019841693508086168417925050509392505050565b6000819050919050565b6000611c9a611c95611c9084611310565b611c75565b611310565b9050919050565b6000819050919050565b611cb483611c7f565b611cc8611cc082611ca1565b848454611c23565b825550505050565b600090565b611cdd611cd0565b611ce8818484611cab565b505050565b5b81811015611d0c57611d01600082611cd5565b600181019050611cee565b5050565b601f821115611d5157611d2281611bf1565b611d2b84611c06565b81016020851015611d3a578190505b611d4e611d4685611c06565b830182611ced565b50505b505050565b600082821c905092915050565b6000611d7460001984600802611d56565b1980831691505092915050565b6000611d8d8383611d63565b9150826002028217905092915050565b611da682611280565b67ffffffffffffffff811115611dbf57611dbe61147a565b5b611dc982546119ea565b611dd4828285611d10565b600060209050601f831160018114611e075760008415611df5578287015190505b611dff8582611d81565b865550611e67565b601f198416611e1586611bf1565b60005b82811015611e3d57848901518255600182019150602085019450602081019050611e18565b86831015611e5a5784890151611e56601f891682611d63565b8355505b6001600288020188555050505b505050505050565b6000606082019050611e84600083018661174d565b8181036020830152611e96818561176d565b9050611ea560408301846117a6565b949350505050565b7f4e487b7100000000000000000000000000000000000000000000000000000000600052603260045260246000fd5b7f4e487b7100000000000000000000000000000000000000000000000000000000600052601160045260246000fd5b6000611f1682611310565b9150611f2183611310565b9250828201905080821115611f3957611f38611edc565b5b92915050565b7f4e487b7100000000000000000000000000000000000000000000000000000000600052601260045260246000fd5b6000611f7982611310565b9150611f8483611310565b925082611f9457611f93611f3f565b5b828204905092915050565b7f4e616d652063616e6e6f7420626520656d707479000000000000000000000000600082015250565b6000611fd560148361175c565b9150611fe082611f9f565b602082019050919050565b6000602082019050818103600083015261200481611fc8565b9050919050565b7f496e76616c69642077616c6c6574206164647265737300000000000000000000600082015250565b600061204160168361175c565b915061204c8261200b565b602082019050919050565b6000602082019050818103600083015261207081612034565b9050919050565b7f436f6c6c656167756520616c7265616479206578697374730000000000000000600082015250565b60006120ad60188361175c565b91506120b882612077565b602082019050919050565b600060208201905081810360008301526120dc816120a0565b905091905056fea2646970667358221220caa8dc4192add8e9ff827d9b3e73c231e8c2f13e721ebaf3f77ce9b67d6e197a64736f6c634300081c0033",
  "linkReferences": {},
  "deployedLinkReferences": {}
}